:100000000C9434000C9449000C9449000C94490061
:100010000C9449000C9449000C9449000C9449003C
:100020000C9449000C9449000C9449000C9449002C
:100030000C9449000C9449000C9449000C9449001C
:100040000C9449000C9449000C9449000C9449000C
:100050000C9449000C9449000C9449000C944900FC
:100060000C9449000C94490011241FBECFEFD8E036
:10007000DEBFCDBF11E0A0E0B1E0EEECF7E002C0E2
:1000800005900D92A832B107D9F70E944B000C944D
:10009000E5030C940000CF93DF93CDB7DEB7E9976B
:1000A0000FB6F894DEBF0FBECDBF0F2EF7E0CF2EF8
:1000B000F02D0F2EF6E0EF2EF02D05E024E043E0CA
:1000C00062E0CE0101960E946603E88DF98D42E060
:1000D00060E1CE0101960995E8A1F9A160E071E027
:1000E000CE0101960995EE8DFF8D41E060E0CE01D5
:1000F00001960995E8A1F9A16DE071E0CE010196A4
:1001000009952FEF83E294EF215080409040E1F772
:1001100000C00000EA8DFB8DCE0101960995EC8DA3
:10012000FD8DCE0101960995E8A1F9A169E171E083
:10013000CE0101960995EE8DFF8D41E060E0CE0184
:1001400001960995E8A1F9A16DE171E0CE01019652
:100150000995FFCF41110DC0FC01408121E030E045
:1001600002C0220F331F6A95E2F7209524232083D3
:100170000895FC01208141E050E002C0440F551F6A
:100180006A95E2F7242B20830895CF93DF9300D064
:10019000CDB7DEB71A82198289819A81883E934051
:1001A00058F4000089819A8101969A838983898114
:1001B0009A81883E9340A8F30F900F90DF91CF91E2
:1001C00008950F931F93CF93DF93EB01688166230C
:1001D00059F08C012196D8019196ED91FC91C801BE
:1001E000099569916111F7CFDF91CF911F910F911F
:1001F0000895883078F098EF980F963098F08E50E8
:100200008630C0F08BE290E0FB0191838083FA019D
:10021000108208952BE230E0FB0131832083FA0144
:100220008083089525E230E0FB0131832083FA01C9
:100230009083089528E230E0FB0131832083FA01A6
:10024000808308951F93CF93DF93EC01162F462FE1
:10025000417068858E819F810E94AA0011FB44270E
:1002600040F96B8589859A850E94AA0012FB442774
:1002700040F96E858C859D850E94AA0013FB44275A
:1002800040F969898F8598890E94AA0040E06D81B4
:100290008B819C810E94AA00000041E06D818B81CE
:1002A0009C810E94AA00000040E06D818B819C81AE
:1002B0000E94AA0081E28A95F1F70000DF91CF91B8
:1002C0001F9108951F93CF93DF93EC01162F6A813E
:1002D000888199810E94AA00612F62956F70CE017A
:1002E0000E942201612FCE010E942201DF91CF9155
:1002F0001F910895CF93DF93EC0140E061E00E94ED
:100300006201CE010E94C500DF91CF910895CF9385
:10031000DF93EC0140E062E00E946201CE010E94A6
:10032000C500DF91CF910895CF93DF9300D000D027
:10033000CDB7DEB7198220E42A8324E12B8324E59C
:100340002C83FC012589421710F04FEF420FFE016C
:10035000E40FF11D2181620F606840E00E9462019C
:100360000F900F900F900F90DF91CF91089541E083
:100370000E9462010895FC016389262F2260238B6D
:100380006A6040E00E9462010895FC0163896D7F0C
:10039000638B686040E00E9462010895FC016389FC
:1003A000262F2160238B696040E00E94620108953E
:1003B000FC0163896E7F638B686040E00E9462018C
:1003C0000895FC016389262F2460238B6C6040E034
:1003D0000E9462010895FC0163896B7F638B6860F2
:1003E00040E00E946201089540E068E10E946201DD
:1003F000089540E06CE10E9462010895FC01648967
:10040000262F2160248B656040E00E9462010895E0
:10041000FC0164896E7F648B646040E00E9462012D
:100420000895EF92FF920F931F93CF93DF937C0178
:100430008A016770660F660F660F606440E00E9475
:100440006201E801085F1F4F699141E0C7010E9406
:100450006201C017D107C1F7DF91CF911F910F91B2
:10046000FF90EF900895CF93DF93EC01423008F4B2
:100470006AC088E08A8B4D8B1E8A83ED90E30197DA
:10048000F1F700C0000040E06A81888199810E94F4
:10049000AA0040E06D818B819C810E94AA0063E0EC
:1004A000CE010E94220181EE94E00197F1F700C095
:1004B000000063E0CE010E94220181EE94E00197EA
:1004C000F1F700C0000063E0CE010E94220189EF35
:1004D00090E00197F1F700C0000062E0CE010E94B9
:1004E00022016A89606240E0CE010E94620181EED1
:1004F00094E00197F1F700C0000084E08B8BEBA53E
:10050000FCA5CE01099581EE94E00197F1F700C0BA
:100510000000E98DFA8DCE01099581EE94E00197F6
:10052000F1F700C0000082E08C8B40E066E0CE0175
:100530000E94620181EE94E00197F1F700C0000093
:10054000DF91CF9108951A8A96CF5F926F927F9232
:100550008F929F92AF92BF92CF92DF92EF92FF92D3
:100560000F931F93CF93DF93CDB7DEB7FC019A882B
:10057000DB887C881D895E896F88608371834283F4
:10058000238334830583E682F782C086A186B28600
:1005900083869486D58676861787508B618AA62FA8
:1005A000B72F5E9081E090E0BC0102C0660F771F1C
:1005B0004A95E2F765296C93A22FB32F4E919C01C7
:1005C00002C0220F331F0A95E2F7242B2C93AE2D85
:1005D000BF2D4E919C0102C0220F331FCA94E2F737
:1005E000242B2C93AA2DBB2D2E91BC0102C0660F8B
:1005F000771F8A94E2F7262B2C93A92DBD2D2E91DF
:10060000BC0102C0660F771F7A94E2F7262B2C9369
:10061000A12FB52F2E9102C0880F991F6A94E2F77F
:10062000822B8C9383E392E0908F878B8AE791E013
:10063000928F818F87E891E0948F838F84E991E096
:10064000968F858F81EE90E090A3878F87EB91E066
:1006500092A381A38BEB91E094A383A385EC91E01B
:1006600096A385A38EEC91E090A787A388ED91E0F7
:1006700092A781A781EE91E094A783A78BEE91E0EA
:1006800096A785A784EF91E090AB87A789EF91E0CB
:1006900092AB81AB8EEF91E094AB83AB88E092E0BC
:1006A00096AB85AB81E192E090AF87ABDF91CF91C4
:1006B0001F910F91FF90EF90DF90CF90BF90AF9080
:1006C0009F908F907F906F905F9008956F927F9230
:1006D0008F92AF92BF92CF92EF92FF920F93CF93F0
:1006E000DF93CDB7DEB762970FB6F894DEBF0FBECB
:1006F000CDBF3C01862FB42EF22EAE01435F5F4F7B
:10070000BE016F5F7F4F0E94F900AE01425F5F4FF5
:10071000BE016D5F7F4F8B2D0E94F900AE01415FDE
:100720005F4FBE016B5F7F4F8F2D0E94F900AE01BE
:10073000405F5F4FBE01695F7F4F802F0E94F900CD
:10074000AE014F5E5F4FBE01675F7F4F8E2D0E94EF
:10075000F900AE014E5E5F4FBE01655F7F4F8C2D8D
:100760000E94F900AF80B884ED80FE802B813C812F
:1007700069817A818A898F938C858F938B858F93FA
:1007800089898F938A858F9389858F938888CF8471
:100790000E854D85C3010E94A5020F900F900F900A
:1007A0000F900F900F9062960FB6F894DEBF0FBEB9
:1007B000CDBFDF91CF910F91FF90EF90CF90BF9081
:0E07C000AF908F907F906F900895F894FFCFC8
:1007CE0048656C6C6F20576F726C642100486F6CBB
:1007DE0061204D756E646F21004156520041546D7B
:0807EE006567613332385000E9
:00000001FF
